{
    "contractName": "StorageFactory",
    "abi": [
        {
            "inputs": [],
            "name": "createSimpleStorageContract",
            "outputs": [],
            "stateMutability": "nonpayable",
            "type": "function"
        },
        {
            "inputs": [
                {
                    "internalType": "uint256",
                    "name": "_simpleStorageIndex",
                    "type": "uint256"
                }
            ],
            "name": "sfGet",
            "outputs": [
                {
                    "internalType": "uint256",
                    "name": "",
                    "type": "uint256"
                }
            ],
            "stateMutability": "view",
            "type": "function"
        },
        {
            "inputs": [
                {
                    "internalType": "uint256",
                    "name": "_simpleStorageIndex",
                    "type": "uint256"
                },
                {
                    "internalType": "uint256",
                    "name": "_simpleStorageNumber",
                    "type": "uint256"
                }
            ],
            "name": "sfStore",
            "outputs": [],
            "stateMutability": "nonpayable",
            "type": "function"
        },
        {
            "inputs": [
                {
                    "internalType": "uint256",
                    "name": "",
                    "type": "uint256"
                }
            ],
            "name": "simpleStorageArray",
            "outputs": [
                {
                    "internalType": "contract SimpleStorage",
                    "name": "",
                    "type": "address"
                }
            ],
            "stateMutability": "view",
            "type": "function"
        }
    ],
    "bytecode": "608060405234801561001057600080fd5b50610a0f806100206000396000f3fe608060405234801561001057600080fd5b506004361061004c5760003560e01c80631563700f146100515780631dda65411461006657806364591bf11461006e578063c5f19c201461009e575b600080fd5b61006461005f366004610286565b6100bf565b005b610064610142565b61008161007c3660046102a8565b6101bd565b6040516001600160a01b0390911681526020015b60405180910390f35b6100b16100ac3660046102a8565b6101e7565b604051908152602001610095565b60008083815481106100d3576100d36102c1565b600091825260209091200154604051636057361d60e01b8152600481018490526001600160a01b0390911691508190636057361d90602401600060405180830381600087803b15801561012557600080fd5b505af1158015610139573d6000803e3d6000fd5b50505050505050565b600060405161015090610279565b604051809103906000f08015801561016c573d6000803e3d6000fd5b50600080546001810182559080527f290decd9548b62a8d60345a988386fc84ba6bc95484008f6362f93160ef3e5630180546001600160a01b0319166001600160a01b039290921691909117905550565b600081815481106101cd57600080fd5b6000918252602090912001546001600160a01b0316905081565b600080600083815481106101fd576101fd6102c1565b600091825260209182902001546040805163a6b7fc5b60e01b815290516001600160a01b039092169350839263a6b7fc5b926004808401938290030181865afa15801561024e573d6000803e3d6000fd5b505050506040513d601f19601f8201168201806040525081019061027291906102d7565b9392505050565b6106e9806102f183390190565b6000806040838503121561029957600080fd5b50508035926020909101359150565b6000602082840312156102ba57600080fd5b5035919050565b634e487b7160e01b600052603260045260246000fd5b6000602082840312156102e957600080fd5b505191905056fe600560008190556002608081815261010060405260c0838152642937b6b0b760d91b60e090815260a09190915260018381559193919261004192909190610056565b50505034801561005057600080fd5b50610129565b828054610062906100ef565b90600052602060002090601f01602090048101928261008457600085556100ca565b82601f1061009d57805160ff19168380011785556100ca565b828001600101855582156100ca579182015b828111156100ca5782518255916020019190600101906100af565b506100d69291506100da565b5090565b5b808211156100d657600081556001016100db565b600181811c9082168061010357607f821691505b60208210810361012357634e487b7160e01b600052602260045260246000fd5b50919050565b6105b1806101386000396000f3fe608060405234801561001057600080fd5b50600436106100885760003560e01c806377ec2b551161005b57806377ec2b55146100f25780638bab8dd5146100fa5780639e7a13ad14610125578063a6b7fc5b1461013857600080fd5b8063471f7cdf1461008d5780634c4443d2146100a95780636057361d146100ca5780636f760f41146100df575b600080fd5b61009660005481565b6040519081526020015b60405180910390f35b6100bc6100b736600461037d565b610140565b6040516100a09291906103c6565b6100dd6100d836600461037d565b600055565b005b6100dd6100ed3660046104a3565b6101ec565b6100bc61029b565b6100966101083660046104e8565b805160208183018101805160038252928201919093012091525481565b6100bc61013336600461037d565b6102af565b600054610096565b6005816003811061015057600080fd5b6002020180546001820180549193509061016990610525565b80601f016020809104026020016040519081016040528092919081815260200182805461019590610525565b80156101e25780601f106101b7576101008083540402835291602001916101e2565b820191906000526020600020905b8154815290600101906020018083116101c557829003601f168201915b5050505050905082565b60408051808201909152818152602080820184815260048054600181018255600091909152835160029091027f8a35acfbc15ff81a39ae7d344fd709f28e8600b4aa8c65c6b64bfe7fe36bd19b8101918255915180519193610273937f8a35acfbc15ff81a39ae7d344fd709f28e8600b4aa8c65c6b64bfe7fe36bd19c01929101906102e4565b50505080600383604051610287919061055f565b908152604051908190036020019020555050565b600180546002805491929161016990610525565b600481815481106102bf57600080fd5b6000918252602090912060029091020180546001820180549193509061016990610525565b8280546102f090610525565b90600052602060002090601f0160209004810192826103125760008555610358565b82601f1061032b57805160ff1916838001178555610358565b82800160010185558215610358579182015b8281111561035857825182559160200191906001019061033d565b50610364929150610368565b5090565b5b808211156103645760008155600101610369565b60006020828403121561038f57600080fd5b5035919050565b60005b838110156103b1578181015183820152602001610399565b838111156103c0576000848401525b50505050565b82815260406020820152600082518060408401526103eb816060850160208701610396565b601f01601f1916919091016060019392505050565b634e487b7160e01b600052604160045260246000fd5b600082601f83011261042757600080fd5b813567ffffffffffffffff8082111561044257610442610400565b604051601f8301601f19908116603f0116810190828211818310171561046a5761046a610400565b8160405283815286602085880101111561048357600080fd5b836020870160208301376000602085830101528094505050505092915050565b600080604083850312156104b657600080fd5b823567ffffffffffffffff8111156104cd57600080fd5b6104d985828601610416565b95602094909401359450505050565b6000602082840312156104fa57600080fd5b813567ffffffffffffffff81111561051157600080fd5b61051d84828501610416565b949350505050565b600181811c9082168061053957607f821691505b60208210810361055957634e487b7160e01b600052602260045260246000fd5b50919050565b60008251610571818460208701610396565b919091019291505056fea2646970667358221220d32fa45678e2b0b47d59c52fb2f43f72752fd8413c181efc91aea5fdb232dc5064736f6c634300080d0033a26469706673582212204abbafe37abac195ade6f41615c4fc6ce4a7defc870a99c97d4d3ae1c50d742c64736f6c634300080d0033",
    "sourcePath": "e:/Programming/Blockchain/Class/Lesson_0_Blockchain/05_Storage_Factory/StorageFactory.sol",
    "compiler": {
        "name": "solc",
        "version": "0.8.13+commit.abaa5c0e"
    },
    "functionHashes": {
        "createSimpleStorageContract()": "1dda6541",
        "sfGet(uint256)": "c5f19c20",
        "sfStore(uint256,uint256)": "1563700f",
        "simpleStorageArray(uint256)": "64591bf1"
    },
    "gasEstimates": {
        "creation": {
            "codeDepositCost": "515000",
            "executionCost": "549",
            "totalCost": "515549"
        },
        "external": {
            "createSimpleStorageContract()": "infinite",
            "sfGet(uint256)": "infinite",
            "sfStore(uint256,uint256)": "infinite",
            "simpleStorageArray(uint256)": "4625"
        }
    }
}